:020000040800F2
:1000000000440020811300087D1300087B130008C2
:100010007B1300087B1300087B130008000000001E
:100020000000000000000000000000007D13000838
:100030007D130008000000007D130008AD060008D5
:100040007B1300087B1300087B1300087B13000858
:100050007B1300087B1300087B1300087B13000848
:100060007B1300087B1300087B1300087B13000838
:100070007B1300087B1300087B1300087B13000828
:100080007B1300087B1300087B1300087B13000818
:10009000190400087B1300087B1300087B13000879
:1000A0007B1300087B1300087B1300087B130008F8
:1000B0007B1300087B1300087B1300087B130008E8
:1000C0007B1300087B1300087B1300087B130008D8
:1000D0007B1300087B1300087B1300087B130008C8
:1000E0007B1300087B130008010400087B13000841
:1000F0007B1300087B1300087B1300087B130008A8
:100100007B1300087B1300087B1300087B13000897
:100110007B1300087B1300087B1300087B13000887
:100120007B1300087B1300087B1300087B13000877
:100130007B1300087B1300087B1300087B13000867
:100140007B1300087B1300087B1300087B13000857
:1001500080B485B000AFF860B9607A603B60BB687E
:100160005B78202B03D0222B09D1012308E03B68C8
:100170001B88062B01D8002302E0012300E00023A6
:1001800018461437BD4680BC704700BF80B594B098
:1001900000AF78600B46FB7007F108024023012195
:1001A000786800F0BBFC0346BB64BB6C9BB207F1F4
:1001B00008028221786800F0AAFC002387F84F30FB
:1001C0000EE097F84F3007F15002134413F8483C03
:1001D000184600F0F7F897F84F30013387F84F30A2
:1001E00097F84F20BB6C9A42EBDB00BF5037BD46FF
:1001F00080BD00BF80B483B000AF78600B46FB7059
:1002000000BF0C37BD4680BC704700BF80B584B0CE
:1002100002AF78600B467B80124B00934023022292
:100220000121786800F052FC0F4B0093402302221A
:100230008221786800F04AFC0023009310230322F7
:100240008321786800F042FC084B7F2221217868E6
:1002500000F02CFD7B88064AC2F8DC3200BF08376C
:10026000BD4680BD8D010008F50100085101000860
:100270001804002080B584B004AF4FF480730022CE
:100280000221254800F034FA4FF48071224800F032
:100290006BFB80230293214B019303230093204B9C
:1002A000204A2149214800F0E1FB0246204B1A6117
:1002B0001F4B1B691F49184600F0BEFF4FF4FA6040
:1002C00000F0BEF94FF48071134800F04BFB4FF47F
:1002D00000721949164800F0EBF800F08DF902465B
:1002E000134BC3F8D822124B0022C3F8DC22104B68
:1002F0000022C3F8D422142001F0AEF82A2001F025
:10030000ABF80421142001F0B5F803212A2001F0F4
:10031000B1F800BFBD4680BD000801402C0400209C
:1003200000040020741B0008CC1A0008FC1B000805
:10033000180400200D020008AC04002080B582B033
:1003400000AF1E4BD3F8DC32002B31D00CE01B4B3E
:10035000D3F8D4325A1C1949C1F8D422F979174A72
:1003600013440A4683F89422144BD3F8D4323F2B1B
:1003700007D8FB1D1946114800F0B2F80346002BC0
:10038000E5D10E4BD3F8D432002B14D00B4B1869A7
:100390000A4BD3F8D4329BB2094A822100F0B7FB52
:1003A0000346002B06D0054B0022C3F8D42202E0FE
:1003B00000BF00E000BF0837BD4680BD1804002024
:1003C000AC06002080B584B000AF0346FB71FB791A
:1003D00019460A4800F0ACF80346002B0AD107F191
:1003E0000F031946054800F07BF8FB7919460348CE
:1003F00000F09EF800BF1037BD4680BD18040020F5
:1004000080B500AF034B1B69184600F05BFB00BFD3
:1004100080BD00BF1804002080B500AF034B1B69EE
:10042000184600F04FFB00BF80BD00BF180400203D
:1004300080B500AF00F018F800F0B8F8FFF71AFF29
:1004400000F006F8FFF77AFF00F0F0FAFAE700BFD5
:1004500080B500AF00F0EAFA4FF4FA7000F0A0FAAD
:1004600000F086FA00BF80BD80B500AF00F034FA1E
:1004700040F2023000F0E2FA40F2033000F0DEFA1F
:100480004FF4417000F0DAFA40F2053000F0D6FA8D
:1004900040F20E3000F0D2FA4FF4407000F0CEFA85
:1004A00000214FF0007000F055F900BF80BD00BF83
:1004B00080B485B000AFF860B9607A60FB68BA6854
:1004C0001A60FB687A685A60FB6800229A60FB68D1
:1004D0009A68FB68DA6000BF1437BD4680BC70477D
:1004E00080B483B000AF786039607B68DA687B687D
:1004F0009B689A4201D1002314E07B681A687B68EC
:10050000DB6813441A783B681A707B68DB68013338
:100510007A685268B3FBF2F102FB01F29A1A7B6827
:10052000DA60012318460C37BD4680BC704700BF17
:1005300080B485B000AF78600B46FB707B689B6829
:1005400001337A685268B3FBF2F102FB01F29B1AA5
:10055000FB607B68DA68FB689A4201D100230AE0FD
:100560007B681A687B689B681344FA781A707B680A
:10057000FA689A60012318461437BD4680BC70475C
:1005800080B400AF074A074B1B6843F080731360C9
:10059000054A054B1B6843F00103136000BFBD46CD
:1005A00080BC7047FCED00E0001000E080B500AFBB
:1005B0000E4B00221A6072B6042000F031FF0C4B83
:1005C0001B680C4AA2FB03239B09184600F020FF7E
:1005D00000F032FF00F038FFFF21FF2000F04AFF5B
:1005E00062B6FFF7CDFF00BF80BD00BFF806002058
:1005F0000C040020D34D621080B400AF024B1B6886
:100600001846BD4680BC7047F806002080B485B00F
:1006100000AF786039603A687B689A4204D93A68DA
:100620007B68D31AFB6004E03A687B68D31A2233F4
:10063000FB60FB6818461437BD4680BC704700BF9E
:1006400080B584B000AF7860FFF7D6FF0346FB604B
:1006500000BF07F10C037968184600F007F803465D
:10066000002BF6D000BF1037BD4680BD80B584B0EA
:1006700000AF78603960FFF7BFFFF8607B681B68E8
:10068000F9681846FFF7C2FFB860BA683B689A423B
:1006900001D2002305E0FFF7AFFF02467B681A6036
:1006A000012318461037BD4680BD00BF80B400AF9F
:1006B0000C4B1B68002B03D10B4B00221A6008E087
:1006C000084B1B68B3F57A7F03D1074B1B68074AB9
:1006D0001360044B1B680133024A136000BFBD4620
:1006E00080BC7047F8060020041000E0FC060020E3
:1006F0002DE9F0434FF6E07796469C460268436842
:1007000000254FF00F084CFA05F4E40719D5072D22
:10071000ACB28BBF3C4616461E46A40098BFA4B29E
:1007200008FA04F926EA090604F102090EFA09F9A1
:1007300001FA04F449EA04043443082D2CBF23468B
:10074000224601350437102DBFB2DCD10260436070
:10075000BDE8F083034A136823F0E06319430843BC
:100760001060704704000140024A136843F0807330
:100770001360704700100240062822D8DFE800F01E
:1007800004090E13181A1C000F4B1868C0F34060C0
:1007900070470D4B1868C0F3C06070470A4B18686B
:1007A000C0F340707047084B1868C0F34040704772
:1007B000054B02E0054B00E0054B1868C0F3400014
:1007C00070470020704700BF001002402010024018
:1007D00024100240024608B51046FFF7CDFF00285E
:1007E000FAD008BD06281FD8DFE800F004060B1079
:1007F00015171900FFF7B8BF0C4A136843F0806360
:1008000011E00A4A136843F080530CE0074A13686A
:1008100043F4803307E0054A02E0054A00E0054A58
:10082000136843F001031360704700BF00100240DB
:100830002010024024100240034A136823F00303EF
:1008400018431060704700BF04100240034A136849
:1008500023F4701343EA8040106070470410024094
:10086000034A136823F4803343EA00401060704762
:1008700004100240034A136823F4003343EA404063
:100880001060704704100240034A136823F4404389
:1008900043EA80301060704704100240034A136836
:1008A00023F4605343EAC0201060704704100240F4
:1008B000034A136823F4E06343EA002010607047A2
:1008C00004100240034A136823F0F00343EA0010C7
:1008D000106070470410024008B50420FFF782FF43
:1008E0000420FFF777FF0020FFF7A6FF0320FFF7A4
:1008F00079FF0320FFF76EFF0120FFF79DFF002027
:10090000FFF7E0FF0320FFF7BFFF0420FFF7D0FF52
:100910000020FFF7C3FF022000F09EF80720FFF73A
:1009200095FF0120FFF79CFF0020FFF7A3FFFFF7D3
:100930001BFF0020FFF74EFF0220FFF77DFF044B57
:10094000044A05491360054A1160054A136008BD51
:1009500000A24A040C0400200051250210040020CB
:100960001404002001617047090401617047000010
:100970004CF6CC42014B1A60704700BF003000407B
:10098000024B1868C0F34000704700BF0C300040B5
:10099000024B186800F00100704700BF0C300040A7
:1009A000400108B5030BB3F5807F1FD8802B02D917
:1009B000020A06211DE0402B02D9C209052118E0D8
:1009C000202B02D98209042113E0102B02D94209FD
:1009D00003210EE0082B02D90209022109E0042BB1
:1009E00087BFC20801218208002102E040F6FF72A1
:1009F0000621FFF7CDFF0028FBD145F25550084BEB
:100A00001860084801601946FFF7BAFF0028FBD1BB
:100A100045F255530B60044BC2F30B021A6008BD3C
:100A20000030004004300040083000404AF6AA225E
:100A3000014B1A60704700BF00300040430903F1CA
:100A4000804303F504331A6800F01F00012101FA06
:100A500000F0104318607047034A136823F007033F
:100A600018431060704700BF002002402DE9F0419C
:100A70001E4603680546884617469847069BC0F8F9
:100A8000DC50C360079BC0F800800361BDF82030D4
:100A900047608382084B86600367084BC366084B38
:100AA00083660023C0F8C830C0F8CC30C0F8D0301E
:100AB000C0F8D430BDE8F081D30C00082D0D00083B
:100AC000B30D0008D0F8DC305B6A184710B4D0F8DA
:100AD000DC40A468A44610BC604737B50446002536
:100AE00003688575C575DB792A4629460095FFF7A9
:100AF000EDFFD4F8DC3029465B6820469847E3696F
:100B00001BB103B0BDE83040184703B030BD10B48E
:100B1000D0F8DC40E469A44610BC604710B4D0F8BB
:100B2000DC40246AA44610BC6047D0F8DC301B6966
:100B30001847D0F8DC309B69184710B504460122ED
:100B40000021FFF7F2FF002384F82C3010BD38B5E8
:100B50000368828FC48EDB79A41A9C42A8BF1C460E
:100B6000816BA4B20A44234600210546FFF7D6FF55
:100B7000844205D02846FFF7E0FF4FF0FF3038BD34
:100B8000AB8F20462344AB8738BD10B503680446BD
:100B9000DA79838F9A4211D213460021826BFFF7D4
:100BA000B6FF0223226884F82C30D379A16B0B4462
:100BB000A363D279A38F9B1AA38710BD826B0021F8
:100BC000FFF7A5FF94F84430002B14BF0223032342
:100BD00084F82C30002384F84430A387A36310BD2D
:100BE0002DE9F74F04460E4600F1480500F1680B69
:100BF00000F13C0900F1380800F1400A2F6857B9AC
:100C00003146204604F13C0304F1380203B0BDE84C
:100C1000F04F00F061BB31786B792A790B409A4232
:100C200003D008355D45E9D1EAE7CDF800A04B4691
:100C3000424631462046B8470128F2D803B0BDE805
:100C4000F08F38B50369044683638B79CA790D4602
:100C500043EA02238387FFF7C3FF10B3EB88BBB1DE
:100C6000A28F21689342C97908D94AB192FBF1F366
:100C700001FB1323B3FA83F35B0902E0002300E0D6
:100C8000134684F844302046BDE83840FFF77DBF66
:100C90001A4619462046FFF73AFF042384F82C3001
:100CA00038BD2046BDE83840FFF747BF70B5002685
:100CB00000EBC605AC6C2CB10136042EF8D14FF018
:100CC000FF3070BD85F84C1085F84D20AB64204690
:100CD00070BD70B500F1300600250564082332466A
:100CE00029460446FFF71AFF082804D02046BDE82D
:100CF0007040FFF722BFE38E1BB194F93020002A29
:100D000005DA31462046BDE87040FFF79ABFA28A57
:100D10009A42EBD32269A587A2632268D2799A42CC
:100D200034BF0523062384F82C3070BD90F82C3096
:100D300010B5062B044610D0072B24D0052B33D139
:100D4000FFF705FF002833DBA28FE38E9B1A226892
:100D5000D27993422CDC062310E0FFF7F8FE00283E
:100D600026DB04F130012046FFF73AFF48B10023AB
:100D70001A4619462046FFF7CAFE042384F82C3091
:100D800010BD204610E000231A461946FFF7C6FEA4
:100D9000002384F82C30236C1BB104F13001204671
:100DA00098470023236410BDBDE81040FFF7C5BE7F
:100DB00010BD90F82C3010B5032B044607D0042B3F
:100DC00007D0022B1CD1BDE81040FFF7DEBE072381
:100DD00013E0036C13B100F13001984794F8303000
:100DE00053B994F83130052B06D1618ED4F8DC303C
:100DF000C9B25B6820469847002384F82C3010BDA8
:100E0000BDE81040FFF799BEF8B50D464988044685
:100E100079B103680D26587C0023834207D26268AB
:100E200006FB032252798A4205D00133F5E7002000
:100E3000F8BD4FF0FF330133DBB2E37543B9D4F8AB
:100E4000DC302046DB689847D4F8C83093B922E0FC
:100E50000D22534362680D3B13440022104619795A
:100E60008A42ECD2D3F809101601715801B108700A
:100E70000132F4E70023A3642365A365236604F12C
:100E8000C40604F1D40756F8043F13B1698820461C
:100E90009847BE42F7D10120F8BD19881268012990
:100EA00084BF01211980C37D2BB141680D2000FB57
:100EB000031313F8083C13700120704730B5C57D4B
:100EC0000D246C4340680D3C20448D880479A54274
:100ED0000CD201241C808B88D0F809001B011B5800
:100EE000126803B11B781370012030BD002030BDA3
:100EF00019880120022984BF02211980116800236A
:100F00000B7012685370704738B514461A882568FC
:100F1000022A84BF02221A808988C9B2FFF709FE1B
:100F2000003018BF01202870236800225A70012069
:100F300038BD08B589880122C9B2FFF7F6FD012046
:100F400008BD08B589880022C9B2FFF7EEFD01206F
:100F500008BD10B50B786BB94C887F2C0AD8D0F837
:100F6000DC30847593F8302032B149885B68C9B2AF
:100F7000984701E0002010BD012010BD70B51D464E
:100F8000C37D0D225A4343680D3A1A448C88137965
:100F9000A34216D9D2F809602201B4184B882479EB
:100FA0009C420ED9B2580AB1137000E04BB9D0F888
:100FB000D83013B14A888988984700232B800120B4
:100FC00070BD002070BD2DE9F04F1F464B880546CF
:100FD000180A022889B014460FD0032800F0DF80D9
:100FE000012840F019812B6813602B681A783B8820
:100FF000934228BF13463B800FE12A69DBB20D26DE
:101000005E432260D5F804803C8818F8065008EB4F
:101010000603A54228BF2546019219462A46019893
:10102000029300F0AFFC019B641B18F806602B4490
:10103000A4B200220492029A1179BDF810209142C4
:1010400040F2A98012010792029A0799D2F809206A
:101050000A44D2F80890B9F1000F14D099F8008032
:101060001846A04528BFA0464946424600F08AFCE3
:10107000034699F80020C8EB040445441644434451
:10108000A4B2ADB2B6B200220392029A0799D2F886
:101090000920BDF80C900A441179494578D91521E9
:1010A00001FB09F9D2F80CA018461AF809800AEBDE
:1010B000090BA04528BFA0465946424600F062FCF5
:1010C00003461AF80920DBF80D10C8EB0404454468
:1010D00016444344A4B2ADB2B6B2A9B1DBF8118054
:1010E0001846A045A8BFA0461FFA88F8424600F05F
:1010F00049FC0346DBF81120C8EB040445441644C0
:101100004344A4B2ADB2B6B200220592BDF8149029
:101110009BF804204A4538D9DBF80920C9EB0919A6
:1011200012F8098002EB090AA04528BFA0460692E2
:1011300051464246184600F025FC0346069ADAF866
:10114000071012F80920C8EB040445441644434430
:10115000A4B2ADB2B6B2A9B1DAF80B801846A04578
:10116000A8BFA0461FFA88F8424600F00BFC0346D1
:10117000DAF80B20C8EB0404454416444344A4B2F7
:10118000ADB2B6B2059A0132BFE7039A01327BE7EE
:10119000049A01324EE7019B5E803D803AE013F0F5
:1011A000FF032E690AD10923B3700423F37033704F
:1011B0003B88042B28BF04233B8028E0A868013B20
:1011C00058B3EA68934227DA40F20942898891428B
:1011D00022D150F823004FEA830800F049FC013087
:1011E0004000C0B230703B880022984228BF1846A9
:1011F00038803B885B08013B9A4208DAAB6853F8B9
:101200000830995C06EB420359800132F1E7032371
:1012100073702660012000E0002009B0BDE8F08F67
:1012200019880120022984BF022119801168002336
:101230000B7012685370704710B5002300F1C4049E
:1012400054F8042F2AB10133042BF9D14FF0FF30A9
:1012500010BD323340F82310104610BD30B44C7826
:10126000092C06D8044D55F8244014B1A44630BCCE
:101270006047002030BC7047A41B000830B44C7895
:101280000B2C06D8044D55F8244014B1A44630BCAC
:101290006047002030BC7047CC1B000810B44C786D
:1012A000012C03D00AD3032C04D00BE04C884CB99A
:1012B000064C04E04C882CB9054C00E0054CA446D3
:1012C00010BC6047002010BC704700BF430F0008EF
:1012D000330F0008090F000810B40C7814F0600FE9
:1012E0000FD104F01F04012C08D004D3022C08D124
:1012F00010BCFFF7D3BF10BCFFF7B0BF10BCFFF7A7
:10130000BDBF002010BC704708B540F29730FFF712
:1013100095FB064A0649002313600B6041F80C3C1C
:101320004FF41C431360034808BD00BF405C0040FD
:10133000505C0040080700200132C2F34F0232B176
:1013400031F8023B013A036092B20430F7E770478C
:10135000F0B502F0010652080D460446134633B1BB
:1013600035F8047B013B24F8027B9BB2F7E71EB102
:1013700011F8223000F81230F0BDFEE7704700008F
:10138000184C1949194800225318834203D21359A3
:1013900053500432F8E7164A0021934202D21960F2
:1013A0000433FAE7134A144C1368144D43F40073E2
:1013B0001360AC4203D254F8043B9847F9E7104C51
:1013C000104DAC4203D254F8043B9847F9E7FFF7BD
:1013D0002FF80D4C0D4DAC4203D254F8043B984706
:1013E000F9E700BF381C00080004002018040020A2
:1013F0000408002014ED00E0381C0008381C000828
:10140000381C0008381C0008381C0008381C00086C
:10141000024B20F07F401860704700BF14E000E0EE
:10142000044A00F00400136823F00403184310601A
:10143000704700BF10E000E0024A136843F0020367
:101440001360704710E000E0024A136843F00103A4
:101450001360704710E000E043099B0003F1604314
:1014600000F01F00012203F5614302FA00F018604A
:1014700070470000432893BF00F16040044B00F028
:101480000F0000F564408CBFC1540170704700BF6D
:1014900014ED00E0024B41F080011960704700BF7D
:1014A0004C5C00403E2A0C4B4FEAC10108D9D006E3
:1014B00018BF203A6FEA82521B686FEA524204E07A
:1014C000D00748BF01321B6892029BB21944034BFC
:1014D00092B249005A507047505C00400C60004086
:1014E0002DE9F3410F461E466B46434927F07F0C1A
:1014F00007F07F07BC00054604F18044086849688E
:1015000004F5B84403C3236802A923F4E04323F09D
:101510007F033B439BB22360236801EB420223F429
:10152000EC4332F8082C23F0700313439BB2DDF830
:10153000208023600CF0FF0E3049F800BCF1000F52
:1015400015D1A7B10B682A8B9BB218442C4B4000D5
:101550001A50394632462846FFF7A4FFB8F1000F6B
:1015600031D00C2303FB0757C7F86C802BE00A68C7
:101570002B8B92B20244520002F1804202F5C0422B
:101580001360B8F1000F04D00C2202FB0752C2F81E
:10159000688048F6CF72D4F800C033440CEA0202E7
:1015A0002260226822F4E04222F0400292B282F0ED
:1015B000200242F4004242F0800222602B83BEF1FE
:1015C000000F15D1BEE74CF68F73226813402360DD
:1015D00022682B8B22F4804222F0700292B282F4B5
:1015E000405242F4004242F080021E4422602E83A8
:1015F00002B0BDE8F08100BF301C0008505C004024
:101600000860004010B50E4A0E4940F63F7314685A
:10161000234043F4004343F08003136043F60F7309
:101620001468234043F4004343F0800342F8043B32
:101630008A42EAD10368DB7920335B00038310BD63
:10164000045C0040205C004010B591B92B4C002A8E
:10165000236818BF102023F4E04323F0400308BFA1
:10166000202043401BB243F4004343F080039BB26D
:1016700023600B061ED501F07F01890001F1804136
:1016800001F5B8410B68002A23F4E04323F040033E
:1016900014BF1022202283EA02031BB243F400434A
:1016A00043F080039BB20B6026D148F6CF730A68E3
:1016B000134020E0890042B94CF68F7001F180435D
:1016C00003F5B8431C682040186001F1804101F522
:1016D000B8410B68002A23F4804323F0700314BF41
:1016E0004FF480524FF4405253401BB243F4004336
:1016F00043F080039BB20B6010BD00BF005C004054
:101700000B060BD501F07F01890001F1804101F545
:10171000B841086800F03000102809E0890001F1A4
:10172000804101F5B841086800F44050B0F5805F91
:1017300014BF0020012070470B0617D40C4B5A54DD
:10174000890001F1804101F5B8410B6823F4804321
:1017500023F070039BB212B183F4005301E083F4D1
:10176000405343F4004343F080030B60704700BFD5
:101770000007002001F07F01F8B58C0004F18044DF
:1017800004F5B8441D462368964603F03003302B19
:1017900029D0164FCE003A68714692B232445200B8
:1017A00002F1804202F5C04210682A4680B2400031
:1017B00000F1804000F5C040FFF7BEFD39680C4BDA
:1017C00089B2314449005D502268284622F4E04243
:1017D00022F0400292B282F0300242F4004242F023
:1017E00080022260F8BD0020F8BD00BF505C0040C0
:1017F00004600040F8B58D0005F1804505F5B84559
:101800001C462B680E4603F44053B3F5405F104668
:101810003AD01F4FC9003A681E4B92B20A44520098
:101820009B58C3F30903A34207DA3A68194B92B2F3
:101830000A4452009C58C4F309043B68164A9BB200
:101840000B445B00D158224689B2490001F1804126
:1018500001F5C041FFF77CFD40F60F732A68134085
:1018600043F080032B600D4B9B5D7BB92A6822F40B
:10187000804222F0700292B282F4405242F400425E
:1018800042F080022A6001E00020F8BD2046F8BD49
:10189000505C00400C6000400860004000070020E1
:1018A000F8B5364B054619681C468EB216F4806FA3
:1018B00008D04FF6FF321A6040230383BDE8F8409A
:1018C000FFF70BB9080433D501F00F0116F0100231
:1018D0004FEA81030AD003F1804202F5B842126850
:1018E00012F4006F14BF022201220CE040F60F70C8
:1018F00003F1804707F5B847D7F800E00EEA00008B
:1019000040F40040386001EB410002441A3255F8BF
:10191000222012B1284690470AE040F60F7203F1E8
:10192000804303F5B84319680A4042F080021A6008
:10193000320505D54FF2FF7323602B6A03B1984738
:10194000F30405D54EF6FF7323606B6A03B1984725
:1019500016F4007F0A4E05D04FF6FF532360AB6AA2
:1019600033B19847AB6A1BB1336843F4007302E0AC
:10197000336823F400733360F8BD00BF445C00405B
:10198000405C0040844641EA000313F0030349D160
:10199000403A23D30B6803604B6843608B688360D5
:1019A000CB68C3600B6903614B6943618B698361D9
:1019B000CB69C3610B6A03624B6A43628B6A8362C1
:1019C000CB6AC3620B6B03634B6B43638B6B8363A9
:1019D000CB6BC36340304031403ADBD230320BD363
:1019E0000B6803604B6843608B688360CB68C3609F
:1019F00010301031103AF3D20C3205D351F8043BB9
:101A000040F8043B043AF9D2043208D0D2071CBF94
:101A100011F8013B00F8013B01D30B8803806046BD
:101A2000704700BF082A13D38B07B1D010F003030F
:101A3000AED0C3F10403D21ADB071CBF11F8013B7F
:101A400000F8013BA4D331F8023B20F8023B9FE7AA
:101A5000043AD9D3013A11F8013B00F8013BF9D21D
:101A60000B7803704B7843708B78837060467047B7
:101A700020F0030110F00300C0F1000051F8043B16
:101A800000F1040C4FEACC0C6FF000021CBF22FAEC
:101A90000CF213434FF0010C4CEA0C2C4CEA0C4CAA
:101AA000A3EB0C0222EA030212EACC1204BF51F8A3
:101AB000043B0430F4D0C2F1000102EA0102B2FAA0
:101AC00082F2C2F11F0200EBD20070471201000245
:101AD000020000408304405700020102030100009D
:101AE000070583031000FF00000000000000000055
:101AF000070501024000010000000000000000078F
:101B0000058202400001000000000000000000000B
:101B1000052400100105240100010424020205240B
:101B200006000100090400000102020100E01A00A1
:101B300008101B0008130000000000000904010049
:101B4000020A000000F01A00080000000000000077
:101B50000000000000000000010000000000000084
:101B6000241B00080000000001000000000000002D
:101B70003C1B0008090200000201008032541B00D7
:101B8000080000005475616E20504D004344432D01
:101B900041434D2044656D6F0000000044454D4FAA
:101BA00000000000211200080000000000000000FA
:101BB0000000000000000000530F0008C70F0008DD
:101BC000000000009B0E0008090E0008F10E00083E
:101BD0000000000000000000000000000000000005
:101BE00000000000000000000000000000000000F5
:101BF00000000000BD0E00087D0F0008091300085A
:101C000095140008E114000805160008491600089C
:101C1000391700080117000875170008F5170008A4
:101C2000A1180008000000000000000000000000F3
:081C30000002000400000006A0
:101C3800841B00088C1B00089C1B000800127A00FB
:081C480000127A0000127A007C
:04000005080013815B
:00000001FF
